:100000000C9434000C9446000C9446000C94B400FC
:100010000C9446000C9446000C9446000C94460048
:100020000C9446000C9446000C9446000C94460038
:100030000C9446000C9446000C9446000C94460028
:100040000C9446000C9446000C9446000C94460018
:100050000C9446000C946E000C9446000C944600E0
:100060000C9446000C94460011241FBECFEFD8E03C
:10007000DEBFCDBF21E0A0E0B1E001C01D92A23003
:10008000B207E1F70E9448000C94EB000C940000CA
:10009000209A579A2198299AE8E6F0E080818160B9
:1000A0008083EBE6F0E0808182608083EAE7F0E025
:1000B000808184608083808182608083ACE7B0E04F
:1000C0008C918F7D8C938C9180648C9380818860DF
:1000D00080838081806880837894FFCF1F920F9205
:1000E0000FB60F9211242F938F939F93EF93FF934B
:1000F000809178002091790090E0922B813092409D
:1001000020F05F9A81E080930001809101018823B3
:1001100029F0EAE7F0E0808180648083FF91EF912D
:100120009F918F912F910F900FBE0F901F90189558
:1001300028988FE090E031E02FE946E851E0215027
:1001400040405040E1F700C0000025B1232725B909
:100150000197009789F781E080930101EAE7F0E0D9
:1001600080818064808308951F920F920FB60F9252
:1001700011242F933F934F935F936F937F938F93AC
:100180009F93AF93BF93EF93FF93199B13C08091FD
:100190000101811103C00E9498000CC028985F984B
:1001A000109200011092010183ED90E30197F1F7A5
:1001B00000C00000FF91EF91BF91AF919F918F918F
:1001C0007F916F915F914F913F912F910F900FBE53
:0A01D0000F901F901895F894FFCFD0
:00000001FF
